:100000000C9463000C948B000C948B000C948B006C
:100010000C948B000C948B000C948B000C948B0034
:100020000C948B000C948B000C948B000C948B0024
:100030000C948B000C948B000C948B000C948B0014
:100040000C94FC050C948B000C948B000C948B008E
:100050000C948B000C948B000C948B000C948B00F4
:100060000C9446060C948B0000000000240027002E
:100070002A0000000000250028002B0000000000DE
:1000800023002600290004040404040404040202DA
:100090000202020203030303030301020408102007
:1000A0004080010204081020010204081020000012
:1000B0000008000201000003040700000000000027
:1000C00000006507790B11241FBECFEFD8E0DEBF1B
:1000D000CDBF23E0A4E0B2E001C01D92A136B2077B
:1000E000E1F712E0A0E0B1E0E2E7FBE102C0059039
:1000F0000D92A430B107D9F710E0C2E6D0E004C0F9
:100100002197FE010E94B40BC136D107C9F70E94A6
:10011000F0070C94AC0D0C94000008950895EF9234
:10012000FF920F931F93CF93C82F8B01E82EF12CD2
:1001300086E0C89FD0011124A652BD4F90967C93B3
:100140006E935F9781E091968C939197E09147032E
:10015000F0914803809146038823C1F0309729F03D
:10016000C11103C08091F6020995E0914903F09115
:100170004A03309729F0B8018091F602CC23E1F0D0
:10018000CF911F910F91FF90EF900895309719F044
:100190005C968C910995E0914903F0914A03309760
:1001A00079F386E08E9DD0018F9DB00D1124A6526B
:1001B000BD4FB8015C968C91CF911F910F91FF902C
:1001C000EF900994CF92DF92EF92FF920F931F93DB
:1001D00096E0899FF0011124E652FD4F11A2278D70
:1001E00030A12130310551F178F02230310509F488
:1001F00051C02330310509F452C01F910F91FF9077
:10020000EF90DF90CF9008956623B9F361E070E03E
:100210000E948F002FB7F8948091C2029091C30280
:10022000A091C402B091C5022FBF80933203909376
:100230003303A0933403B0933503DFCF9FB7F89413
:10024000C090C202D090C302E090C402F090C502F8
:100250009FBF0091320310913303209134033091FA
:100260003503C01AD10AE20AF30A0091440310913F
:10027000450330E020E00C151D052E053F0550F428
:1002800062E070E01F910F91FF90EF90DF90CF90B0
:100290000C948F006111B1CF63E070E0F3CF70E098
:1002A00060E0F0CF0895AF92BF92CF92DF92EF92CD
:1002B000FF920F931F93CF93DF936C017B018B0110
:1002C000040F151FEB015E01AE18BF08C017D10760
:1002D00059F06991D601ED91FC910190F081E02DEA
:1002E000C6010995892B79F7C501DF91CF911F913F
:1002F0000F91FF90EF90DF90CF90BF90AF90089557
:10030000833081F028F4813099F08230A9F008958B
:100310008730A9F08830C9F08430B1F48091800032
:100320008F7D03C0809180008F7780938000089537
:1003300084B58F7784BD089584B58F7DFBCF809180
:10034000B0008F778093B00008958091B0008F7DCA
:10035000F9CFCF93DF93282F30E0F901E255FF4F1B
:100360008491F901E656FF4FD491F901EA57FF4F06
:10037000C491CC23A1F081110E948001EC2FF0E008
:10038000EE0FFF1FE458FF4FA591B491EC91ED23C0
:1003900081E090E009F480E0DF91CF91089580E062
:1003A00090E0FACF862F0C94A9011F93CF93DF938F
:1003B000282F30E0F901E255FF4F8491F901E6560C
:1003C000FF4FD491F901EA57FF4FC491CC23A9F014
:1003D000162F81110E948001EC2FF0E0EE0FFF1F1D
:1003E000EE58FF4FA591B4918FB7F894EC9111118D
:1003F00008C0D095DE23DC938FBFDF91CF911F9192
:100400000895DE2BF8CF862F642F0C94D501CF935F
:10041000DF9390E0FC01E656FF4F24918A579F4FEF
:10042000FC0184918823C9F090E0880F991FFC019A
:10043000E859FF4FA591B491FC01EE58FF4FC591CB
:10044000D49161110DC09FB7F8948C9120958223AF
:100450008C938881282328839FBFDF91CF910895B3
:10046000623051F49FB7F8943C91822F809583239A
:100470008C93E8812E2BEFCF8FB7F894EC912E2B35
:100480002C938FBFEACF862F642F0C9407023FB7BF
:10049000F8948091B7029091B802A091B902B091FE
:1004A000BA0226B5A89B05C02F3F19F00196A11DE1
:1004B000B11D3FBFBA2FA92F982F8827BC01CD01AE
:1004C000620F711D811D911D42E0660F771F881F0D
:1004D000991F4A95D1F708958F929F92AF92BF923C
:1004E000CF92DF92EF92FF924B015C010E94470294
:1004F0006B017C010E9447026C197D098E099F09DE
:10050000683E734081059105A8F321E0821A9108A5
:10051000A108B10888EEC80E83E0D81EE11CF11CCA
:1005200081149104A104B10429F7FF90EF90DF90AA
:10053000CF90BF90AF909F908F90089520914502EB
:10054000260F3327331F21323105ECF420918E0220
:10055000FC0190E080E0243069F082E00895A091F1
:1005600045022191AC014B5D5D4FA40FB52FB11D2C
:100570002C930196861798F380914502680F60933B
:10058000450280E0089581E0089510928E0281E096
:1005900080938D021092680261E082E10E94D50191
:1005A00061E083E10E94D501E9EBF0E080818E7F7C
:1005B000808380818D7F808388E48093B80085E488
:1005C0008093BC000895CF93DF9391E09093240231
:1005D0008823B9F0C091B800D091BA008091BC00D6
:1005E0008A7B8093BC0060E082E10E94D50160E0DC
:1005F00083E10E94D5010E94C502D093BA00C09346
:10060000B800DF91CF9108950895E091CD028091D7
:10061000CC02E81730F4F0E0EC5FFD4F808190E011
:1006200008958FEF9FEF08959091CD028091CC02B5
:100630002FEF3FEF981748F4E92FF0E0EC5FFD4F04
:10064000208130E09F5F9093CD02C9010895809191
:10065000CC029091CD02891B990B0895CF92DF9225
:10066000EF92FF920F931F93CF93DF937C01CB0107
:100670008A0120919402222389F0EB016B01C40EC0
:10068000D51ECC15DD0569F06991D701ED91FC917E
:100690000190F081E02DC7010995F3CF642F0E94EE
:1006A0009E02C801DF91CF911F910F91FF90EF90B3
:1006B000DF90CF900895CF93DF931F92CDB7DEB731
:1006C0006983209194022223F9F02091CA022032FA
:1006D00058F021E030E0FC013383228390E080E099
:1006E0000F90DF91CF9108958091CB02E82FF0E039
:1006F000EB56FD4F998190838F5F8093CB0280935F
:10070000CA0281E090E0ECCF61E0CE0101960E9448
:100710009E02F7CFCF92DF92EF92FF920F931F933B
:10072000CF93DF93FC01C48121E020939402C09316
:10073000B5021092CB021092CA028385682B8EEC10
:1007400092E00E945B03D091CA02D13208F092C0BD
:100750000E9447026B017C0180918E02811165C06D
:1007600082E080938E0281E080938D028FEF8093F0
:100770008C0210928B02D0938A02A5E9B2E0EAE6DD
:10078000F2E080E0D81385C010926902809169027E
:10079000CC0FC82BC093690280916802813009F0A8
:1007A0007CC0109268020E9447026B017C0180911C
:1007B00069028093BB008091900290919102A09178
:1007C0009202B0919302892B8A2B8B2B99F00E9475
:1007D0004702009190021091910220919202309173
:1007E00093026C197D098E099F09061717072807C0
:1007F0003907E0F18091BC0083FDD9CF85EC80936F
:10080000BC000E9447026B017C0180918E02823005
:1008100009F445C080918C028F3F61F180918C0278
:10082000803241F180918C0225C08091900290919C
:100830009102A0919202B0919302892B8A2B8B2B6B
:1008400009F48ACF0E944702009190021091910210
:1008500020919202309193026C197D098E099F09B3
:10086000061717072807390708F076CF80918F02FF
:100870000E94E3021092CB021092CA0210929402DC
:10088000DF91CF911F910F91FF90EF90DF90CF906C
:1008900008959D9191938F5F75CF85EEB0CF809134
:1008A000900290919102A0919202B0919302892BB3
:1008B0008A2B8B2B09F4A9CF0E944702009190024A
:1008C0001091910220919202309193026C197D094E
:1008D0008E099F09061717072807390708F095CFD3
:1008E000C5CF90E080E0089560E08DE00E94D501E2
:1008F00068EE73E080E090E00C946C020F931F931D
:10090000CF938C01C62F0E948A036C2F6460C801AC
:100910000E948A036C2F6B7FC8010E948A0383ECBC
:1009200090E00197F1F7CF911F910F9108950F93E8
:100930001F93CF93DF938C01D62FC42F607F642B3E
:100940000E947E0480E1D89FB00111246C2BC80165
:10095000DF91CF911F910F910C947E0440E061E0F4
:1009600081E593E00E9497048BE39FE10197F1F703
:100970000895CF93DF93CDB7DEB728970FB6F894DD
:10098000DEBF0FBECDBF98E0E9E1F1E0DE011196D8
:1009900001900D929A95E1F790915903961710F4F2
:1009A0006FEF690F262F30E0220F331F41E050E038
:1009B0004C0F5D1F240F351FF9016081680F6068BF
:1009C00040E081E593E028960FB6F894DEBF0FBEB5
:1009D000CDBFDF91CF910C949704CF93DF9310920A
:1009E000CD021092CC021092CB021092CA020E9449
:1009F000C5028DE890E09093C9028093C8028EE80A
:100A000090E09093C7028093C602109256038091A3
:100A10005B03823018F098E090935603809359035B
:100A200062E370E080E090E00E946C0260915C0301
:100A300081E593E00E948A0368EE73E080E090E035
:100A40000E946C0260E381E593E00E947E04CBE4A7
:100A5000D6E4CE010197F1F760E381E593E00E94CF
:100A60007E042197F1F760E381E593E00E947E0424
:100A700083E592E00197F1F760E281E593E00E945F
:100A80007E0460915603606240E081E593E00E943D
:100A9000970484E08093570340E06CE081E593E0A5
:100AA0000E9497040E94AE0482E08093580340E0C5
:100AB00066E081E593E00E94970440E062E081E512
:100AC00093E00E9497048BE39FE10197F1F7DF9198
:100AD000CF91089541E00E94970481E090E008954D
:100AE000FC0101900020E9F73197AF01481B590B39
:100AF000BC0181E593E00C945301FC01808191815C
:100B0000009711F00C94560C0895EF92FF920F93FA
:100B10001F93CF93DF93EC017B018A018881998138
:100B2000009729F02A813B812417350788F4B80102
:100B30006F5F7F4F0E94DF0C009791F0998388834D
:100B40001B830A832C813D81232B11F4FC0110822D
:100B50001D830C83B701888199810E94A50D0CC06B
:100B600088819981009711F00E94560C1982188291
:100B70001D821C821B821A82CE01DF91CF911F91B0
:100B80000F91FF90EF90089585ED8093BC008091C8
:100B9000900290919102A0919202B09193020796D7
:100BA000A11DB11D23E0B695A795979587952A9528
:100BB000D1F72091BC0024FD03C010928E0208954D
:100BC0004091900250919102609192027091930233
:100BD000452B462B472B69F30097A105B10541F042
:100BE00025E32A95F1F700000197A109B109E1CFAA
:100BF00080918F020C94E3021F920F920FB60F9216
:100C000011242F933F938F939F93AF93BF93809122
:100C1000C2029091C302A091C402B091C50230916A
:100C2000B60223E0230F2D3758F50196A11DB11D03
:100C30002093B6028093C2029093C302A093C40291
:100C4000B093C5028091B7029091B802A091B90209
:100C5000B091BA020196A11DB11D8093B702909385
:100C6000B802A093B902B093BA02BF91AF919F911D
:100C70008F913F912F910F900FBE0F901F9018955D
:100C800026E8230F0296A11DB11DD2CF1F920F920D
:100C90000FB60F9211242F933F934F935F936F934F
:100CA0007F938F939F93AF93BF93EF93FF93809125
:100CB000B900887F803609F44AC0F0F5883209F41B
:100CC000A7C018F5803109F49BC0B8F4882309F453
:100CD000F9C0883009F494C0FF91EF91BF91AF91B2
:100CE0009F918F917F916F915F914F913F912F9144
:100CF0000F900FBE0F901F901895883109F488C08F
:100D0000803251F780938C0214C0803409F49DC066
:100D100040F48033B9F38833F9F680938C0285EC84
:100D2000B0C0803509F485C0883509F496C0883490
:100D300099F60E94C405D0CF883909F48CC038F5E3
:100D4000883729F050F4883611F0803729F683E08F
:100D500080938E021092670257C0883809F47BC0D6
:100D6000803919F0803809F0B7CF8091670280325E
:100D700008F071C0E091670281E08E0F80936702F6
:100D80008091BB00F0E0E95BFD4F80833DC0803B7C
:100D900039F0E0F4803A09F479C0883A09F09CCF40
:100DA00084E080938E021092460210924502E091F8
:100DB000C802F091C90209958091450281110FC0C6
:100DC00081E0809345021092250209C0803C09F41D
:100DD000A6CF883C09F4A3CF883B09F07DCFE091F2
:100DE000460281E08E0F80934602F0E0EB5DFD4FFE
:100DF00080818093BB00909146028091450229C07A
:100E0000809169028093BB0085EC8093BC0064CF25
:100E100090918B0280918A02981758F5E0918B028D
:100E200081E08E0F80938B02F0E0E659FD4F8081C8
:100E3000E9CFE0918B0281E08E0F80938B0280914D
:100E4000BB00F0E0E659FD4F808390918B028091CA
:100E50008A029817C8F285E8D8CFE0918B0281E02A
:100E60008E0F80938B028091BB00F0E0E659FD4F1E
:100E7000808380918D0281115CCF81E08093680234
:100E800084EA8093BC0010928E0226CF85EC80937A
:100E9000BC0010928E0280916702803230F4E091A3
:100EA0006702F0E0E95BFD4F10826091670270E03D
:100EB000E091C602F091C70287E492E00995109292
:100EC00067020ACF10928C0234CF1092D102109296
:100ED000D00288EE93E0A0E0B0E08093D20290933D
:100EE000D302A093D402B093D50285E291E090930F
:100EF000CF028093CE02109254031092530381E4E8
:100F000091E090935203809351038FE380935503B4
:100F100084E180935A0384E080935B0310925C0326
:100F200010924C0310924B0310924E0310924D03FB
:100F30001092500310924F0344E050E069E471E0D6
:100F40008BE493E00E9485051092DC021092E0028F
:100F50001092DF021092E10287E391E09093DB02AE
:100F60008093DA02E6EFF2E0108214821382158297
:100F7000369683E0E233F807B9F783E091E0909387
:100F80003D0380933C0380E091E090933F03809386
:100F90003E0384E08093400383E08093410387E035
:100FA00091E090933B0380933A038AE090E0909322
:100FB00043038093420384EF91E090934503809331
:100FC0004403109248031092470310923603109284
:100FD0003703109238031092390310924603089594
:100FE000CF93DF93CDB7DEB76C970FB6F894DEBF23
:100FF0000FBECDBF789484B5826084BD84B5816016
:1010000084BD85B5826085BD85B5816085BD8091D3
:101010006E00816080936E0010928100809181004B
:101020008260809381008091810081608093810043
:10103000809180008160809380008091B100846005
:101040008093B1008091B00081608093B000809166
:101050007A00846080937A0080917A008260809325
:101060007A0080917A00816080937A0080917A0082
:10107000806880937A001092C10061E08DE00E9448
:10108000070261E08CE00E9407020E94ED040E94CA
:10109000ED0488E080935C0360E081E593E00E94CA
:1010A0008A038EE491E00E94700561E080E00E9476
:1010B000B90483E691E00E94700562E080E00E943E
:1010C000B90488E791E00E94700563E080E00E9427
:1010D000B9048AE891E00E94700568EB7BE080E04B
:1010E00090E00E946C020E94AE040E94740464E1CD
:1010F00070E080E090E00E946C02812C912C540101
:1011000083943E0123E1620E711C6E0139E1C30E2E
:10111000D11C0E94AE0485E991E00E94700564E64E
:1011200070E080E090E00E946C0281E080934603D2
:101130008FB7F8944091C2025091C3026091C402EB
:101140007091C5028FBF8091360390913703A091B3
:101150003803B0913903481B590B6A0B7B0B809104
:10116000420390914303B0E0A0E084179507A607DF
:10117000B70708F015C110E080914003181760F41C
:10118000E0913C03F0913D03E10FF11D62E08081AD
:101190000E9407021F5FF0CF312C80914103381667
:1011A00008F064C0E32CF12CE0913E03F0913F0382
:1011B000EE0DFF1D61E080810E940702E0913E0379
:1011C000F0913F03EE0DFF1D60E080810E94D5018C
:1011D000D501C401032C04C0880F991FAA1FBB1F8F
:1011E0000A94D2F79C8F8B8F2C0140945094212C21
:1011F00080914003281618F5022D10E0E0913C0381
:10120000F0913D03E00FF11F80810E94A9010C5F66
:101210001F4F000F111FF801E652FD4F892B51F4AB
:10122000808191812B8D3C8D822B932B91838083A8
:101230002394DECF8081918184219521F7CFE091A5
:101240003E03F0913F03EE0DFF1D61E080810E949F
:10125000D50180913E0390913F03E80EF91E60E0B6
:10126000F70180810E940702339497CF0AED12E0C4
:101270007801F701878D90A1892B31F4148E2FEF1F
:101280003FEF368F258F11A236E0E30EF11C56E1B9
:10129000E51653E0F50669F7512C80914003581686
:1012A00008F053C0412C252C312C220C331CC101D9
:1012B0008E519D4F1C0120914103421608F043C0FE
:1012C000F10160817181042C02C0769567950A94C2
:1012D000E2F7529E90011124240D311DEAEDF2E057
:1012E00080E0458D568D2417350709F400C28F5FC5
:1012F00036968A30B1F760FF24C0EAEDF2E090E064
:1013000080E0448D411118C0E0913A03F0913B0315
:10131000E20FF31F408156E0589FF001599FF00DF6
:101320001124E652FD4F448F368F258F10A2178E61
:1013300061E00E94E20005C0019636968A30910570
:1013400001F74394B8CF5394A8CF80E0F80191A15E
:101350009111892F0A5F1F4FE016F106B9F79FB769
:10136000F8944091C2025091C3026091C4027091FE
:10137000C5029FBF409336035093370360933803F1
:1013800070933903882361F08091FB02882341F038
:101390008091F9029091FA025090F602019719F0AB
:1013A00010924603512C8E010F5F1F4F7801F801F8
:1013B00011821082138212821582148250E040E062
:1013C0006EEB71E0C8010E9485050A5F1F4F06158C
:1013D000170569F7552009F495C00E94AE0485E908
:1013E00091E00E9470050091C0021091C10262E07C
:1013F000802F0E94B90441E0652D81E593E00E94B1
:10140000970464EF71E080E090E00E946C02FAE2E1
:101410005F1619F023E2521288C01092C102109296
:10142000C0020E9474040E94AE048091C002909198
:10143000C102049709F066C08091BE029091BF027C
:10144000181619060CF029C18091BC029091BD02BA
:1014500001969093BD028093BC021092BF0210923D
:10146000BE021092C1021092C0020E94AE0462E05D
:1014700080E00E94B9048AEA91E00E94700568EE5B
:1014800073E080E090E00E946C020E9474048091FE
:10149000BC029091BD020397A9F51092BD02109273
:1014A000BC020E94AE0461E080E00E94B9048EEDAF
:1014B00091E00E94700562E080E00E94B90483EF31
:1014C00091E00E9470050AE010E061E08CE00E946B
:1014D000D50168EE73E080E090E00E946C0260E06D
:1014E0008CE00E94D50168EE73E080E090E00E94FD
:1014F0006C020150110949F764EF71E080E090E05F
:101500000E946C02CE010D960E947D05CE010796C9
:101510000E947D05C7010E947D0580E090E0892B37
:1015200009F4F7CD0E940000F4CD80914F03909113
:1015300050030817190730F4E0914B03F0914C0366
:10154000309779F51092BB02EBEBF2E02081251188
:1015500086C01C8A1B8A1E8A1D8A188E1F8A598E75
:101560001A8EF60101900020E9F731978F010C19CE
:101570001D09B8016F5F7F4F90E080E00E94DF0C93
:10158000009791F09C8B8B8B1E8B0D8B2F89388D48
:10159000232B09F443C0188F0F8BB6010E94A50DB1
:1015A0000DC0E00FF11FD2CF8B899C890097C9F540
:1015B0001C8A1B8A188E1F8A1E8A1D8A0091C002EF
:1015C0001091C102F6E0F09F2001F19F500C112410
:1015D0004E0C5F1CF20180819181009739F16B897B
:1015E0007C896115710501F1428153812F89388D04
:1015F00042175307C8F00E94A50D8F89988DF201FC
:1016000095838483188E1F8AC3010E947D050F5F16
:101610001F4F1093C1020093C00207CFFC0110823C
:10162000BACF0E94560CC4CF0E94560C26E0209FD1
:10163000F001219FF00D1124EE0DFF1D8B899C8977
:10164000918380838D899E89938382838F89988DEE
:10165000958384831C8A1B8A1E8A1D8AD3CF081710
:10166000190730F4E0914B03F0914C03309791F45B
:101670001092BB02EBEBF2E08081851509F4D5CE28
:101680008091BE029091BF0201969093BF02809319
:10169000BE02BDCFE00FF11FEFCF892B09F0F7CECF
:1016A0001092C1021092C0020E94AE0461E080E07C
:1016B0000E94B9048FEB91E00E94700562E085E022
:1016C0000E94B90483ED91E00E94700560ED77E01F
:1016D00080E090E00E946C0261E08DE00E94D50104
:1016E00060ED77E080E090E00E946C02D0CE617007
:1016F00020CE8BE493E00C947D052F923F924F9285
:101700005F926F927F928F929F92AF92BF92CF9291
:10171000DF92EF92FF920F931F93CF93DF93CDB79A
:10172000DEB7CA1BDB0B0FB6F894DEBF0FBECDBF12
:1017300009942A88398848885F846E847D848C84E3
:101740009B84AA84B984C884DF80EE80FD800C81EC
:101750001B81AA81B981CE0FD11D0FB6F894DEBFCF
:101760000FBECDBFED010895EE0FFF1F0590F49160
:10177000E02D09940F931F93CF93DF93823091054F
:1017800010F482E090E0E0915F03F091600330E0BC
:1017900020E0B0E0A0E0309799F42115310509F47C
:1017A0004AC0281B390B24303105D8F58A819B812A
:1017B0006115710589F1FB0193838283FE0111C0DC
:1017C000408151810281138148175907E0F0481781
:1017D000590799F4109761F012960C93129713968B
:1017E0001C933296CF01DF91CF911F910F910895F5
:1017F00000935F0310936003F4CF2115310551F07E
:101800004217530738F0A901DB019A01BD01DF013E
:10181000F801C1CFEF01F9CF9093600380935F038C
:10182000CDCFFE01E20FF31F819391932250310936
:1018300039832883D7CF20915D0330915E03232B1A
:1018400041F4209115013091160130935E032093ED
:101850005D0320911301309114012115310541F4EC
:101860002DB73EB74091170150911801241B350B3D
:10187000E0915D03F0915E03E217F307A0F42E1BE5
:101880003F0B2817390778F0AC014E5F5F4F2417E4
:10189000350748F04E0F5F1F50935E0340935D0382
:1018A000819391939FCFF0E0E0E09CCFCF93DF93C3
:1018B0000097E9F0FC01329713821282A0915F0336
:1018C000B0916003ED0130E020E01097A1F4208199
:1018D0003181820F931F20915D0330915E032817A1
:1018E000390709F061C0F0935E03E0935D03DF9177
:1018F000CF910895EA01CE17DF07E8F54A815B81B1
:101900009E0141155105B1F7E901FB83EA83499135
:101910005991C40FD51FEC17FD0761F480819181A7
:101920000296840F951FE9019983888382819381B0
:101930009B838A83F0E0E0E012968D919C9113974F
:101940000097B9F52D913C911197CD010296820F28
:10195000931F20915D0330915E032817390739F6F4
:10196000309751F51092600310925F03B0935E03BD
:10197000A0935D03BCCFD383C28340815181840F88
:10198000951FC817D90761F44E5F5F4F8881998111
:10199000480F591F518340838A819B81938382839F
:1019A0002115310509F0B0CFF0936003E0935F0398
:1019B0009ECFFD01DC01C0CF13821282D7CFB0E0F1
:1019C000A0E0E5EEFCE00C947F0B8C01009751F455
:1019D000CB010E94BA0B8C01C801CDB7DEB7E0E1A4
:1019E0000C949B0BFC01E60FF71F9C012250310960
:1019F000E217F30708F49DC0D901CD91DC9111974E
:101A0000C617D70798F0C530D10530F3CE0104973B
:101A10008617970708F3C61BD70B2297C193D1935C
:101A20006D937C93CF010E94560CD6CF5B01AC1A0C
:101A3000BD0A4C018C0E9D1EA0915F03B091600306
:101A4000512C412CF12CE12C109731F580915D0344
:101A500090915E038815990509F05CC046165706FB
:101A600008F058C08091130190911401009741F43F
:101A70008DB79EB74091170150911801841B950BAB
:101A8000E817F90708F055C0F0935E03E0935D0393
:101A9000F90171836083A0CF8D919C91119712966B
:101AA0006C90129713967C901397A815B90559F569
:101AB0006C0142E0C40ED11CCA14DB0420F1AC015D
:101AC0004A195B09DA011296159780F062827382D7
:101AD00051834083D9016D937C93E114F10471F03B
:101AE000D7011396FC93EE93129776CF22968C0F24
:101AF0009D1FF90191838083F301EFCFF093600381
:101B0000E0935F0369CF4816590608F42C017D0164
:101B1000D3019ACFCB010E94BA0B7C01009749F008
:101B2000AE01B8010E949C0DC8010E94560C8701AD
:101B300053CF10E000E050CFFB01DC0102C0019068
:101B40000D9241505040D8F70895FB01DC010190FF
:101B50000D920020E1F7089510E0C2E6D0E004C045
:101B6000FE010E94B40B2196C336D107C9F7F89441
:021B7000FFCFA5
:101B7200030405060708093132333435363738395C
:101B82002A3023000061038000000040001400544A
:101B920000000000005B032E0371040403270314FA
:101BA2000305030000000043020302D2010000000B
:101BB200006A05530171045201363637390020207C
:101BC200202020347833204B6579706164202020F6
:101BD2002020002020204C6F636B696E67205379B0
:101BE2007374656D2020200042793A205269666143
:101BF20074205461736469642000556D6D65204ED4
:101C0200696761680020456E74657220556E6C6F5D
:101C1200636B20436F64653A2000202020205772B6
:101C22006F6E6720436F64652120202020200020F2
:101C3200202020202057656C636F6D6521202020B5
:101C420020200020446F6F72204F70656E002020AC
:101C520020205741524E494E472020212121212048
:101C62002020002020204163636573732044656E49
:041C7200696564003C
:00000001FF
