:100000000C9463000C948B000C948B000C948B006C
:100010000C948B000C948B000C948B000C948B0034
:100020000C948B000C948B000C948B000C948B0024
:100030000C948B000C948B000C948B000C948B0014
:100040000C94FC050C948B000C948B000C948B008E
:100050000C948B000C948B000C948B000C948B00F4
:100060000C9446060C948B0000000000240027002E
:100070002A0000000000250028002B0000000000DE
:1000800023002600290004040404040404040202DA
:100090000202020203030303030301020408102007
:1000A0004080010204081020010204081020000012
:1000B0000008000201000003040700000000000027
:1000C00000006507790B11241FBECFEFD8E0DEBF1B
:1000D000CDBF23E0AEE1B2E001C01D92AB37B20765
:1000E000E1F712E0A0E0B1E0E2E7FBE102C0059039
:1000F0000D92AE31B107D9F710E0C2E6D0E004C0EE
:100100002197FE010E94B40BC136D107C9F70E94A6
:10011000F0070C94AC0D0C94000008950895EF9234
:10012000FF920F931F93CF93C82F8B01E82EF12CD2
:1001300086E0C89FD0011124AC50BD4F90967C93AF
:100140006E935F9781E091968C939197E091610314
:10015000F0916203809160038823C1F0309729F009
:10016000C11103C0809110030995E0916303F091E0
:100170006403309729F0B80180911003CC23E1F09B
:10018000CF911F910F91FF90EF900895309719F044
:100190005C968C910995E0916303F091640330972C
:1001A00079F386E08E9DD0018F9DB00D1124AC5067
:1001B000BD4FB8015C968C91CF911F910F91FF902C
:1001C000EF900994CF92DF92EF92FF920F931F93DB
:1001D00096E0899FF0011124EC50FD4F11A2278D6C
:1001E00030A12130310551F178F02230310509F488
:1001F00051C02330310509F452C01F910F91FF9077
:10020000EF90DF90CF9008956623B9F361E070E03E
:100210000E948F002FB7F8948091DC029091DD024C
:10022000A091DE02B091DF022FBF80934C03909328
:100230004D03A0934E03B0934F03DFCF9FB7F894C5
:10024000C090DC02D090DD02E090DE02F090DF0290
:100250009FBF00914C0310914D0320914E033091AC
:100260004F03C01AD10AE20AF30A00915E0310910B
:100270005F0330E020E00C151D052E053F0550F40E
:1002800062E070E01F910F91FF90EF90DF90CF90B0
:100290000C948F006111B1CF63E070E0F3CF70E098
:1002A00060E0F0CF0895AF92BF92CF92DF92EF92CD
:1002B000FF920F931F93CF93DF936C017B018B0110
:1002C000040F151FEB015E01AE18BF08C017D10760
:1002D00059F06991D601ED91FC910190F081E02DEA
:1002E000C6010995892B79F7C501DF91CF911F913F
:1002F0000F91FF90EF90DF90CF90BF90AF90089557
:10030000833081F028F4813099F08230A9F008958B
:100310008730A9F08830C9F08430B1F48091800032
:100320008F7D03C0809180008F7780938000089537
:1003300084B58F7784BD089584B58F7DFBCF809180
:10034000B0008F778093B00008958091B0008F7DCA
:10035000F9CFCF93DF93282F30E0F901E255FF4F1B
:100360008491F901E656FF4FD491F901EA57FF4F06
:10037000C491CC23A1F081110E948001EC2FF0E008
:10038000EE0FFF1FE458FF4FA591B491EC91ED23C0
:1003900081E090E009F480E0DF91CF91089580E062
:1003A00090E0FACF862F0C94A9011F93CF93DF938F
:1003B000282F30E0F901E255FF4F8491F901E6560C
:1003C000FF4FD491F901EA57FF4FC491CC23A9F014
:1003D000162F81110E948001EC2FF0E0EE0FFF1F1D
:1003E000EE58FF4FA591B4918FB7F894EC9111118D
:1003F00008C0D095DE23DC938FBFDF91CF911F9192
:100400000895DE2BF8CF862F642F0C94D501CF935F
:10041000DF9390E0FC01E656FF4F24918A579F4FEF
:10042000FC0184918823C9F090E0880F991FFC019A
:10043000E859FF4FA591B491FC01EE58FF4FC591CB
:10044000D49161110DC09FB7F8948C9120958223AF
:100450008C938881282328839FBFDF91CF910895B3
:10046000623051F49FB7F8943C91822F809583239A
:100470008C93E8812E2BEFCF8FB7F894EC912E2B35
:100480002C938FBFEACF862F642F0C9407023FB7BF
:10049000F8948091D1029091D202A091D302B091B0
:1004A000D40226B5A89B05C02F3F19F00196A11DC7
:1004B000B11D3FBFBA2FA92F982F8827BC01CD01AE
:1004C000620F711D811D911D42E0660F771F881F0D
:1004D000991F4A95D1F708958F929F92AF92BF923C
:1004E000CF92DF92EF92FF924B015C010E94470294
:1004F0006B017C010E9447026C197D098E099F09DE
:10050000683E734081059105A8F321E0821A9108A5
:10051000A108B10888EEC80E83E0D81EE11CF11CCA
:1005200081149104A104B10429F7FF90EF90DF90AA
:10053000CF90BF90AF909F908F90089520915F02D1
:10054000260F3327331F21323105ECF42091A80206
:10055000FC0190E080E0243069F082E00895A091F1
:100560005F022191AC01415C5D4FA40FB52FB11D1D
:100570002C930196861798F380915F02680F609321
:100580005F0280E0089581E008951092A80281E062
:100590008093A7021092820261E082E10E94D5015D
:1005A00061E083E10E94D501E9EBF0E080818E7F7C
:1005B000808380818D7F808388E48093B80085E488
:1005C0008093BC000895CF93DF9391E090933E0217
:1005D0008823B9F0C091B800D091BA008091BC00D6
:1005E0008A7B8093BC0060E082E10E94D50160E0DC
:1005F00083E10E94D5010E94C502D093BA00C09346
:10060000B800DF91CF9108950895E091E7028091BD
:10061000E602E81730F4F0E0E25EFD4F808190E002
:1006200008958FEF9FEF08959091E7028091E60281
:100630002FEF3FEF981748F4E92FF0E0E25EFD4F0F
:10064000208130E09F5F9093E702C9010895809177
:10065000E6029091E702891B990B0895CF92DF92F1
:10066000EF92FF920F931F93CF93DF937C01CB0107
:100670008A012091AE02222389F0EB016B01C40EA6
:10068000D51ECC15DD0569F06991D701ED91FC917E
:100690000190F081E02DC7010995F3CF642F0E94EE
:1006A0009E02C801DF91CF911F910F91FF90EF90B3
:1006B000DF90CF900895CF93DF931F92CDB7DEB731
:1006C00069832091AE022223F9F02091E4022032C6
:1006D00058F021E030E0FC013383228390E080E099
:1006E0000F90DF91CF9108958091E502E82FF0E01F
:1006F000E155FD4F998190838F5F8093E502809350
:10070000E40281E090E0ECCF61E0CE0101960E942E
:100710009E02F7CFCF92DF92EF92FF920F931F933B
:10072000CF93DF93FC01C48121E02093AE02C093FC
:10073000CF021092E5021092E4028385682B88EEC6
:1007400092E00E945B03D091E402D13208F092C0A3
:100750000E9447026B017C018091A802811165C053
:1007600082E08093A80281E08093A7028FEF8093BC
:10077000A6021092A502D093A402AFEAB2E0E4E888
:10078000F2E080E0D81385C010928302809183024A
:10079000CC0FC82BC093830280918202813009F074
:1007A0007CC0109282020E9447026B017C01809102
:1007B00083028093BB008091AA029091AB02A0912A
:1007C000AC02B091AD02892B8A2B8B2B99F00E9441
:1007D00047020091AA021091AB022091AC02309125
:1007E000AD026C197D098E099F09061717072807A6
:1007F0003907E0F18091BC0083FDD9CF85EC80936F
:10080000BC000E9447026B017C018091A8028230EB
:1008100009F445C08091A6028F3F61F18091A60244
:10082000803241F18091A60225C08091AA02909168
:10083000AB02A091AC02B091AD02892B8A2B8B2B1D
:1008400009F48ACF0E9447020091AA021091AB02DC
:100850002091AC023091AD026C197D098E099F097F
:10086000061717072807390708F076CF8091A902E5
:100870000E94E3021092E5021092E4021092AE028E
:10088000DF91CF911F910F91FF90EF90DF90CF906C
:1008900008959D9191938F5F75CF85EEB0CF809134
:1008A000AA029091AB02A091AC02B091AD02892B4B
:1008B0008A2B8B2B09F4A9CF0E9447020091AA0230
:1008C0001091AB022091AC023091AD026C197D0900
:1008D0008E099F09061717072807390708F095CFD3
:1008E000C5CF90E080E0089560E08DE00E94D501E2
:1008F00068EE73E080E090E00C946C020F931F931D
:10090000CF938C01C62F0E948A036C2F6460C801AC
:100910000E948A036C2F6B7FC8010E948A0383ECBC
:1009200090E00197F1F7CF911F910F9108950F93E8
:100930001F93CF93DF938C01D62FC42F607F642B3E
:100940000E947E0480E1D89FB00111246C2BC80165
:10095000DF91CF911F910F910C947E0440E061E0F4
:100960008BE693E00E9497048BE39FE10197F1F7F8
:100970000895CF93DF93CDB7DEB728970FB6F894DD
:10098000DEBF0FBECDBF98E0E9E1F1E0DE011196D8
:1009900001900D929A95E1F790917303961710F4D8
:1009A0006FEF690F262F30E0220F331F41E050E038
:1009B0004C0F5D1F240F351FF9016081680F6068BF
:1009C00040E08BE693E028960FB6F894DEBF0FBEAA
:1009D000CDBFDF91CF910C949704CF93DF9310920A
:1009E000E7021092E6021092E5021092E4020E94E1
:1009F000C5028DE890E09093E3028093E2028EE8D6
:100A000090E09093E1028093E00210927003809155
:100A10007503823018F098E090937003809373030D
:100A200062E370E080E090E00E946C0260917603E7
:100A30008BE693E00E948A0368EE73E080E090E02A
:100A40000E946C0260E38BE693E00E947E04CBE49C
:100A5000D6E4CE010197F1F760E38BE693E00E94C4
:100A60007E042197F1F760E38BE693E00E947E0419
:100A700083E592E00197F1F760E28BE693E00E9454
:100A80007E0460917003606240E08BE693E00E9418
:100A9000970484E08093710340E06CE08BE693E080
:100AA0000E9497040E94AE0482E08093720340E0AB
:100AB00066E08BE693E00E94970440E062E08BE6FC
:100AC00093E00E9497048BE39FE10197F1F7DF9198
:100AD000CF91089541E00E94970481E090E008954D
:100AE000FC0101900020E9F73197AF01481B590B39
:100AF000BC018BE693E00C945301FC018081918151
:100B0000009711F00C94560C0895EF92FF920F93FA
:100B10001F93CF93DF93EC017B018A018881998138
:100B2000009729F02A813B812417350788F4B80102
:100B30006F5F7F4F0E94DF0C009791F0998388834D
:100B40001B830A832C813D81232B11F4FC0110822D
:100B50001D830C83B701888199810E94A50D0CC06B
:100B600088819981009711F00E94560C1982188291
:100B70001D821C821B821A82CE01DF91CF911F91B0
:100B80000F91FF90EF90089585ED8093BC008091C8
:100B9000AA029091AB02A091AC02B091AD0207966F
:100BA000A11DB11D23E0B695A795979587952A9528
:100BB000D1F72091BC0024FD03C01092A802089533
:100BC0004091AA025091AB026091AC027091AD02CB
:100BD000452B462B472B69F30097A105B10541F042
:100BE00025E32A95F1F700000197A109B109E1CFAA
:100BF0008091A9020C94E3021F920F920FB60F92FC
:100C000011242F933F938F939F93AF93BF93809122
:100C1000DC029091DD02A091DE02B091DF02309102
:100C2000D00223E0230F2D3758F50196A11DB11DE9
:100C30002093D0028093DC029093DD02A093DE0229
:100C4000B093DF028091D1029091D202A091D302A1
:100C5000B091D4020196A11DB11D8093D102909351
:100C6000D202A093D302B093D402BF91AF919F91CF
:100C70008F913F912F910F900FBE0F901F9018955D
:100C800026E8230F0296A11DB11DD2CF1F920F920D
:100C90000FB60F9211242F933F934F935F936F934F
:100CA0007F938F939F93AF93BF93EF93FF93809125
:100CB000B900887F803609F44AC0F0F5883209F41B
:100CC000A7C018F5803109F49BC0B8F4882309F453
:100CD000F9C0883009F494C0FF91EF91BF91AF91B2
:100CE0009F918F917F916F915F914F913F912F9144
:100CF0000F900FBE0F901F901895883109F488C08F
:100D0000803251F78093A60214C0803409F49DC04C
:100D100040F48033B9F38833F9F68093A60285EC6A
:100D2000B0C0803509F485C0883509F496C0883490
:100D300099F60E94C405D0CF883909F48CC038F5E3
:100D4000883729F050F4883611F0803729F683E08F
:100D50008093A8021092810257C0883809F47BC0A2
:100D6000803919F0803809F0B7CF80918102803244
:100D700008F071C0E091810281E08E0F80938102C2
:100D80008091BB00F0E0EF59FD4F80833DC0803B78
:100D900039F0E0F4803A09F479C0883A09F09CCF40
:100DA00084E08093A8021092600210925F02E091AA
:100DB000E202F091E302099580915F0281110FC078
:100DC00081E080935F0210923F0209C0803C09F4E9
:100DD000A6CF883C09F4A3CF883B09F07DCFE091F2
:100DE000600281E08E0F80936002F0E0E15CFD4FD5
:100DF00080818093BB009091600280915F0229C046
:100E0000809183028093BB0085EC8093BC0064CF0B
:100E10009091A5028091A402981758F5E091A5023F
:100E200081E08E0F8093A502F0E0EC57FD4F8081AA
:100E3000E9CFE091A50281E08E0F8093A502809119
:100E4000BB00F0E0EC57FD4F80839091A5028091AC
:100E5000A4029817C8F285E8D8CFE091A50281E0F6
:100E60008E0F8093A5028091BB00F0E0EC57FD4F00
:100E700080838091A70281115CCF81E08093820200
:100E800084EA8093BC001092A80226CF85EC809360
:100E9000BC001092A80280918102803230F4E0916F
:100EA0008102F0E0EF59FD4F10826091810270E005
:100EB000E091E002F091E10281E692E00995109262
:100EC00081020ACF1092A60234CF1092EB02109248
:100ED000EA0288EE93E0A0E0B0E08093EC02909309
:100EE000ED02A093EE02B093EF0285E291E09093C1
:100EF000E9028093E80210926E0310926D0381E480
:100F000091E090936C0380936B038FE380936F0366
:100F100084E18093740384E08093750310927603D8
:100F20001092660310926503109268031092670393
:100F300010926A031092690344E050E069E471E0A2
:100F400085E693E00E9485051092F6021092FA025F
:100F50001092F9021092FB0287E391E09093F50260
:100F60008093F402E0E1F3E0108214821382158290
:100F7000369683E0EC34F807B9F783E091E090937C
:100F800057038093560380E091E090935903809338
:100F9000580384E080935A0383E080935B0387E0E7
:100FA00091E090935503809354038AE090E09093EE
:100FB0005D0380935C0384EF91E090935F038093E3
:100FC0005E0310926203109261031092500310921C
:100FD000510310925203109253031092600308952C
:100FE000CF93DF93CDB7DEB76C970FB6F894DEBF23
:100FF0000FBECDBF789484B5826084BD84B5816016
:1010000084BD85B5826085BD85B5816085BD8091D3
:101010006E00816080936E0010928100809181004B
:101020008260809381008091810081608093810043
:10103000809180008160809380008091B100846005
:101040008093B1008091B00081608093B000809166
:101050007A00846080937A0080917A008260809325
:101060007A0080917A00816080937A0080917A0082
:10107000806880937A001092C10061E08DE00E9448
:10108000070261E08CE00E9407020E94ED040E94CA
:10109000ED0488E08093760360E08BE693E00E94A5
:1010A0008A038EE491E00E94700561E080E00E9476
:1010B000B90487E691E00E94700562E080E00E943A
:1010C000B9048CE791E00E94700563E080E00E9423
:1010D000B9048DE891E00E94700568EB7BE080E048
:1010E00090E00E946C020E94AE040E94740464E1CD
:1010F00070E080E090E00E946C02812C912C540101
:1011000083943E0123E1620E711C6E0139E1C30E2E
:10111000D11C0E94AE048CE991E00E94700564E647
:1011200070E080E090E00E946C0281E080936003B8
:101130008FB7F8944091DC025091DD026091DE029D
:101140007091DF028FBF8091500390915103A09165
:101150005203B0915303481B590B6A0B7B0B8091D0
:101160005C0390915D03B0E0A0E084179507A607AB
:10117000B70708F015C110E080915A03181760F402
:10118000E0915603F0915703E10FF11D62E0808179
:101190000E9407021F5FF0CF312C80915B0338164D
:1011A00008F064C0E32CF12CE0915803F09159034E
:1011B000EE0DFF1D61E080810E940702E09158035F
:1011C000F0915903EE0DFF1D60E080810E94D50172
:1011D000D501C401032C04C0880F991FAA1FBB1F8F
:1011E0000A94D2F79C8F8B8F2C0140945094212C21
:1011F00080915A03281618F5022D10E0E09156034D
:10120000F0915703E00FF11F80810E94A9010C5F4C
:101210001F4F000F111FF801EC50FD4F892B51F4A7
:10122000808191812B8D3C8D822B932B91838083A8
:101230002394DECF8081918184219521F7CFE091A5
:101240005803F0915903EE0DFF1D61E080810E946B
:10125000D5018091580390915903E80EF91E60E082
:10126000F70180810E940702339497CF04EF12E0C8
:101270007801F701878D90A1892B31F4148E2FEF1F
:101280003FEF368F258F11A236E0E30EF11C50E3BD
:10129000E51653E0F50669F7512C80915A0358166C
:1012A00008F053C0412C252C312C220C331CC101D9
:1012B00084509D4F1C0120915B03421608F043C0EF
:1012C000F10160817181042C02C0769567950A94C2
:1012D000E2F7529E90011124240D311DE4EFF2E05B
:1012E00080E0458D568D2417350709F400C28F5FC5
:1012F00036968A30B1F760FF24C0E4EFF2E090E068
:1013000080E0448D411118C0E0915403F0915503E1
:10131000E20FF31F408156E0589FF001599FF00DF6
:101320001124EC50FD4F448F368F258F10A2178E5D
:1013300061E00E94E20005C0019636968A30910570
:1013400001F74394B8CF5394A8CF80E0F80191A15E
:101350009111892F0A5F1F4FE016F106B9F79FB769
:10136000F8944091DC025091DD026091DE027091B0
:10137000DF029FBF40935003509351036093520389
:1013800070935303882361F080911503882341F003
:10139000809113039091140350901003019719F05A
:1013A00010926003512C8E010F5F1F4F7801F801DE
:1013B00011821082138212821582148250E040E062
:1013C00067ED71E0C8010E9485050A5F1F4F061591
:1013D000170569F7552009F495C00E94AE048EEAFE
:1013E00091E00E9470050091DA021091DB0262E048
:1013F000802F0E94B90441E0652D8BE693E00E94A6
:10140000970464EF71E080E090E00E946C02FAE2E1
:101410005F1619F023E2521288C01092DB0210927C
:10142000DA020E9474040E94AE048091DA02909164
:10143000DB02049709F066C08091D8029091D9022E
:10144000181619060CF029C18091D6029091D70286
:1014500001969093D7028093D6021092D9021092EF
:10146000D8021092DB021092DA020E94AE0462E00F
:1014700080E00E94B90483EC91E00E94700568EE60
:1014800073E080E090E00E946C020E9474048091FE
:10149000D6029091D7020397A9F51092D702109225
:1014A000D6020E94AE0461E080E00E94B90487EF9A
:1014B00091E00E94700562E080E00E94B9048CE037
:1014C00092E00E94700503E010E061E08CE00E9471
:1014D000D50168EE73E080E090E00E946C0260E06D
:1014E0008CE00E94D50168EE73E080E090E00E94FD
:1014F0006C020150110949F764EF71E080E090E05F
:101500000E946C02CE010D960E947D05CE010796C9
:101510000E947D05C7010E947D0580E090E0892B37
:1015200009F4F7CD0E940000F4CD809169039091F9
:101530006A030817190730F4E0916503F091660318
:10154000309779F51092D502E5EDF2E02081251172
:1015500086C01C8A1B8A1E8A1D8A188E1F8A598E75
:101560001A8EF60101900020E9F731978F010C19CE
:101570001D09B8016F5F7F4F90E080E00E94DF0C93
:10158000009791F09C8B8B8B1E8B0D8B2F89388D48
:10159000232B09F443C0188F0F8BB6010E94A50DB1
:1015A0000DC0E00FF11FD2CF8B899C890097C9F540
:1015B0001C8A1B8A188E1F8A1E8A1D8A0091DA02D5
:1015C0001091DB02F6E0F09F2001F19F500C1124F6
:1015D0004E0C5F1CF20180819181009739F16B897B
:1015E0007C896115710501F1428153812F89388D04
:1015F00042175307C8F00E94A50D8F89988DF201FC
:1016000095838483188E1F8AC3010E947D050F5F16
:101610001F4F1093DB020093DA0207CFFC01108208
:10162000BACF0E94560CC4CF0E94560C26E0209FD1
:10163000F001219FF00D1124EE0DFF1D8B899C8977
:10164000918380838D899E89938382838F89988DEE
:10165000958384831C8A1B8A1E8A1D8AD3CF081710
:10166000190730F4E0916503F0916603309791F427
:101670001092D502E5EDF2E08081851509F4D5CE12
:101680008091D8029091D90201969093D9028093CB
:10169000D802BDCFE00FF11FEFCF892B09F0F7CEB5
:1016A0001092DB021092DA020E94AE0461E080E048
:1016B0000E94B90488ED91E00E94700562E085E027
:1016C0000E94B9048CEE91E00E94700560ED77E015
:1016D00080E090E00E946C0261E08DE00E94D50104
:1016E00060ED77E080E090E00E946C02D0CE617007
:1016F00020CE85E693E00C947D052F923F924F9289
:101700005F926F927F928F929F92AF92BF92CF9291
:10171000DF92EF92FF920F931F93CF93DF93CDB79A
:10172000DEB7CA1BDB0B0FB6F894DEBF0FBECDBF12
:1017300009942A88398848885F846E847D848C84E3
:101740009B84AA84B984C884DF80EE80FD800C81EC
:101750001B81AA81B981CE0FD11D0FB6F894DEBFCF
:101760000FBECDBFED010895EE0FFF1F0590F49160
:10177000E02D09940F931F93CF93DF93823091054F
:1017800010F482E090E0E0917903F0917A0330E088
:1017900020E0B0E0A0E0309799F42115310509F47C
:1017A0004AC0281B390B24303105D8F58A819B812A
:1017B0006115710589F1FB0193838283FE0111C0DC
:1017C000408151810281138148175907E0F0481781
:1017D000590799F4109761F012960C93129713968B
:1017E0001C933296CF01DF91CF911F910F910895F5
:1017F0000093790310937A03F4CF2115310551F04A
:101800004217530738F0A901DB019A01BD01DF013E
:10181000F801C1CFEF01F9CF90937A038093790358
:10182000CDCFFE01E20FF31F819391932250310936
:1018300039832883D7CF2091770330917803232BE6
:1018400041F42091150130911601309378032093D3
:10185000770320911301309114012115310541F4D2
:101860002DB73EB74091170150911801241B350B3D
:10187000E0917703F0917803E217F307A0F42E1BB1
:101880003F0B2817390778F0AC014E5F5F4F2417E4
:10189000350748F04E0F5F1F50937803409377034E
:1018A000819391939FCFF0E0E0E09CCFCF93DF93C3
:1018B0000097E9F0FC01329713821282A09179031C
:1018C000B0917A03ED0130E020E01097A1F420817F
:1018D0003181820F931F209177033091780328176D
:1018E000390709F061C0F0937803E0937703DF9143
:1018F000CF910895EA01CE17DF07E8F54A815B81B1
:101900009E0141155105B1F7E901FB83EA83499135
:101910005991C40FD51FEC17FD0761F480819181A7
:101920000296840F951FE9019983888382819381B0
:101930009B838A83F0E0E0E012968D919C9113974F
:101940000097B9F52D913C911197CD010296820F28
:10195000931F20917703309178032817390739F6C0
:10196000309751F510927A0310927903B09378036F
:10197000A0937703BCCFD383C28340815181840F6E
:10198000951FC817D90761F44E5F5F4F8881998111
:10199000480F591F518340838A819B81938382839F
:1019A0002115310509F0B0CFF0937A03E093790364
:1019B0009ECFFD01DC01C0CF13821282D7CFB0E0F1
:1019C000A0E0E5EEFCE00C947F0B8C01009751F455
:1019D000CB010E94BA0B8C01C801CDB7DEB7E0E1A4
:1019E0000C949B0BFC01E60FF71F9C012250310960
:1019F000E217F30708F49DC0D901CD91DC9111974E
:101A0000C617D70798F0C530D10530F3CE0104973B
:101A10008617970708F3C61BD70B2297C193D1935C
:101A20006D937C93CF010E94560CD6CF5B01AC1A0C
:101A3000BD0A4C018C0E9D1EA0917903B0917A03D2
:101A4000512C412CF12CE12C109731F5809177032A
:101A5000909178038815990509F05CC046165706E1
:101A600008F058C08091130190911401009741F43F
:101A70008DB79EB74091170150911801841B950BAB
:101A8000E817F90708F055C0F0937803E09377035F
:101A9000F90171836083A0CF8D919C91119712966B
:101AA0006C90129713967C901397A815B90559F569
:101AB0006C0142E0C40ED11CCA14DB0420F1AC015D
:101AC0004A195B09DA011296159780F062827382D7
:101AD00051834083D9016D937C93E114F10471F03B
:101AE000D7011396FC93EE93129776CF22968C0F24
:101AF0009D1FF90191838083F301EFCFF0937A0367
:101B0000E093790369CF4816590608F42C017D014A
:101B1000D3019ACFCB010E94BA0B7C01009749F008
:101B2000AE01B8010E949C0DC8010E94560C8701AD
:101B300053CF10E000E050CFFB01DC0102C0019068
:101B40000D9241505040D8F70895FB01DC010190FF
:101B50000D920020E1F7089510E0C2E6D0E004C045
:101B6000FE010E94B40B2196C336D107C9F7F89441
:021B7000FFCFA5
:101B7200030405060708093132333435363738395C
:101B82002A302300007B0380000000400014005430
:101B920000000000005B032E0371040403270314FA
:101BA2000305030000000043020302D2010000000B
:101BB200006A05530171045201313233340020208E
:101BC2002020204353453436312050726F6A6563BA
:101BD200742020202020002020204C6F636B696E2F
:101BE200672053797374656D2020200042793A2072
:101BF2005269666174205461736469640042793A7F
:101C020020556D6D65204E696761680020456E74D0
:101C120065722050617373776F72643A20002045B9
:101C22006E74657220556E6C6F636B20436F6465D2
:101C32003A20002020202057726F6E6720436F6485
:101C420065212020202020002020202020205765F0
:101C52006C636F6D652120202020200020446F6F6F
:101C620072204F70656E00202020205741524E494D
:101C72004E47202021212121202020002020204108
:0E1C820063636573732044656E6965640000DA
:00000001FF
